:020000040800F2
:1000000000000220055200086D4A0008714A0008ED
:10001000754A0008794A00087D4A0008000000007F
:10002000000000000000000000000000814A0008FD
:10003000854A000800000000894A00088D4A00082F
:1000400055520008555200085552000855520008F4
:1000500055520008555200085552000855520008E4
:1000600055520008555200085552000855520008D4
:1000700055520008555200085552000855520008C4
:1000800055520008555200085552000855520008B4
:1000900055520008555200085552000855520008A4
:1000A0005552000855520008555200085552000894
:1000B000914A000855520008555200085552000850
:1000C0005552000855520008555200085552000874
:1000D0005552000855520008555200085552000864
:1000E0009D4A0008A54A00085552000855520008CC
:1000F0005552000855520008555200085552000844
:100100005552000855520008555200085552000833
:100110005552000855520008555200085552000823
:100120005552000855520008555200085552000813
:100130005552000800000000000000005552000861
:1001400055520008555200085552000855520008F3
:1001500055520008555200085552000855520008E3
:1001600055520008555200085552000855520008D3
:100170005552000855520008555200080000000072
:1001800000000000555200080000000000000000C0
:100190005552000800000000000000005552000801
:1001A00000000000000000000000000055520008A0
:1001B0005552000855520008555200085552000883
:0401C000555200088C
:1001C40010B5054C237833B9044B13B10448AFF38D
:1001D40000800123237010BD800000200000000077
:1001E4007863000808B5034B1BB103490348AFF318
:1001F400008008BD0000000084000020786300082F
:1002040081F0004102E000BF83F0004330B54FEAC3
:1002140041044FEA430594EA050F08BF90EA020F30
:100224001FBF54EA000C55EA020C7FEA645C7FEAC3
:10023400655C00F0E2804FEA5454D4EB5555B8BFE6
:100244006D420CDD2C4480EA020281EA030382EA57
:10025400000083EA010180EA020281EA0303362DE9
:1002640088BF30BD11F0004F4FEA01314FF4801CBC
:100274004CEA113102D0404261EB410113F0004FCE
:100284004FEA03334CEA133302D0524263EB430385
:1002940094EA050F00F0A780A4F10104D5F1200E23
:1002A4000DDB02FA0EFC22FA05F2801841F100017E
:1002B40003FA0EF2801843FA05F359410EE0A5F152
:1002C40020050EF1200E012A03FA0EFC28BF4CF083
:1002D400020C43FA05F3C01851EBE37101F0004539
:1002E40007D54FF0000EDCF1000C7EEB00006EEB46
:1002F4000101B1F5801F1BD3B1F5001F0CD34908D0
:100304005FEA30004FEA3C0C04F101044FEA445226
:1003140012F5800F80F09A80BCF1004F08BF5FEAAD
:10032400500C50F1000041EB045141EA050130BD8D
:100334005FEA4C0C404141EB010111F4801FA4F130
:100344000104E9D191F0000F04BF01460020B1FA85
:1003540081F308BF2033A3F10B03B3F120020CDABD
:100364000C3208DD02F1140CC2F10C0201FA0CF09B
:1003740021FA02F10CE002F11402D8BFC2F1200C00
:1003840001FA02F120FA0CFCDCBF41EA0C019040B6
:10039400E41AA2BF01EB0451294330BD6FEA0404FF
:1003A4001F3C1CDA0C340EDC04F11404C4F12002EA
:1003B40020FA04F001FA02F340EA030021FA04F3FC
:1003C40045EA030130BDC4F10C04C4F1200220FA53
:1003D40002F001FA04F340EA0300294630BD21FA91
:1003E40004F0294630BD94F0000F83F4801306BF57
:1003F40081F480110134013D4EE77FEA645C18BF4B
:100404007FEA655C29D094EA050F08BF90EA020FE1
:1004140005D054EA000C04BF1946104630BD91EAD9
:10042400030F1EBF0021002030BD5FEA545C05D1DC
:100434004000494128BF41F0004130BD14F580041B
:100444003CBF01F5801130BD01F0004545F0FE418F
:1004540041F470014FF0000030BD7FEA645C1ABFC4
:10046400194610467FEA655C1CBF0B46024650EAFB
:10047400013406BF52EA033591EA030F41F4002127
:1004840030BD00BF90F0000F04BF0021704730B5AD
:100494004FF4806404F132044FF000054FF0000182
:1004A40050E700BF90F0000F04BF0021704730B543
:1004B4004FF4806404F1320410F0004548BF404218
:1004C4004FF000013EE700BF42004FEAE2014FEA6D
:1004D40031014FEA02701FBF12F07F4393F07F4F48
:1004E40081F06051704732F07F4208BF704793F04B
:1004F4007F4F04BF41F40021704730B54FF460745E
:1005040001F0004521F000411CE700BF50EA010260
:1005140008BF704730B54FF000050AE050EA010209
:1005240008BF704730B511F0004502D5404261EB79
:1005340041014FF4806404F132045FEA915C3FF4BA
:10054400D8AE4FF003025FEADC0C18BF03325FEA57
:10055400DC0C18BF033202EBDC02C2F1200300FA08
:1005640003FC20FA02F001FA03FE40EA0E0021FA2D
:1005740002F11444BDE600BF70B54FF0FF0C4CF41B
:10058400E06C1CEA11541DBF1CEA135594EA0C0FCD
:1005940095EA0C0F00F0DEF82C4481EA030621EA08
:1005A4004C5123EA4C5350EA013518BF52EA033543
:1005B40041F4801143F4801338D0A0FB02CE4FF0F5
:1005C4000005E1FB02E506F00042E0FB03E54FF025
:1005D4000006E1FB03569CF0000F18BF4EF0010E1D
:1005E400A4F1FF04B6F5007F64F5407404D25FEA19
:1005F4004E0E6D4146EB060642EAC62141EA5551CC
:100604004FEAC52040EA5E504FEACE2EB4F1FD0C0D
:1006140088BFBCF5E06F1ED8BEF1004F08BF5FEA8B
:10062400500E50F1000041EB045170BD06F000463D
:1006340046EA010140EA020081EA0301B4EB5C04EA
:10064400C2BFD4EB0C0541EA045170BD41F48011E2
:100654004FF0000E013C00F3AB8014F1360FDEBF07
:10066400002001F0004170BDC4F10004203C35DAE3
:100674000C341BDC04F11404C4F1200500FA05F366
:1006840020FA04F001FA05F240EA020001F0004207
:1006940021F0004110EBD37021FA04F642EB06017D
:1006A4005EEA430E08BF20EAD37070BDC4F10C04A7
:1006B400C4F1200500FA04F320FA05F001FA04F26B
:1006C40040EA020001F0004110EBD37041F1000157
:1006D4005EEA430E08BF20EAD37070BDC4F1200562
:1006E40000FA05F24EEA020E20FA04F301FA05F2CA
:1006F40043EA020321FA04F001F0004121FA04F272
:1007040020EA020000EBD3705EEA430E08BF20EA41
:10071400D37070BD94F0000F0FD101F0004640007B
:1007240041EB010111F4801F08BF013CF7D041EAFD
:10073400060195F0000F18BF704703F00046520001
:1007440043EB030313F4801F08BF013DF7D043EAD2
:100754000603704794EA0C0F0CEA135518BF95EA88
:100764000C0F0CD050EA410618BF52EA4306D1D10F
:1007740081EA030101F000414FF0000070BD50EA2E
:10078400410606BF1046194652EA430619D094EAB8
:100794000C0F02D150EA013613D195EA0C0F05D1A2
:1007A40052EA03361CBF104619460AD181EA0301F6
:1007B40001F0004141F0FE4141F470014FF00000AE
:1007C40070BD41F0FE4141F4780170BD70B54FF049
:1007D400FF0C4CF4E06C1CEA11541DBF1CEA1355C9
:1007E40094EA0C0F95EA0C0F00F0A7F8A4EB0504AB
:1007F40081EA030E52EA03354FEA013100F08880A2
:100804004FEA03334FF0805545EA131343EA12636A
:100814004FEA022245EA111545EA10654FEA00261F
:100824000EF000419D4208BF964244F1FD0404F5D8
:10083400407402D25B084FEA3202B61A65EB030534
:100844005B084FEA32024FF480104FF4002CB6EBF1
:10085400020E75EB030E22BFB61A754640EA0C0071
:100864005B084FEA3202B6EB020E75EB030E22BFB1
:10087400B61A754640EA5C005B084FEA3202B6EBF2
:10088400020E75EB030E22BFB61A754640EA9C00B1
:100894005B084FEA3202B6EB020E75EB030E22BF81
:1008A400B61A754640EADC0055EA060E18D04FEA3F
:1008B400051545EA16754FEA06164FEAC30343EADF
:1008C40052734FEAC2025FEA1C1CC0D111F4801FAC
:1008D4000BD141EA00014FF000004FF0004CB6E7A5
:1008E40011F4801F04BF01430020B4F1FD0C88BF44
:1008F400BCF5E06F3FF6AFAEB5EB030C04BFB6EB4F
:10090400020C5FEA500C50F1000041EB045170BD41
:100914000EF0004E4EEA113114EB5C04C2BFD4EB6E
:100924000C0541EA045170BD41F480114FF0000EF2
:10093400013C90E645EA060E8DE60CEA135594EA6E
:100944000C0F08BF95EA0C0F3FF43BAF94EA0C0F71
:100954000AD150EA01347FF434AF95EA0C0F7FF4E6
:1009640025AF104619462CE795EA0C0F06D152EA3A
:1009740003353FF4FDAE1046194622E750EA41061E
:1009840018BF52EA43067FF4C5AE50EA41047FF42F
:100994000DAF52EA43057FF4EBAE12E74FEA410292
:1009A400B2F1E04324BFB3F5001CDCF1FE5C0DD9C9
:1009B40001F0004C4FEAC0024CEA5070B2F1004F13
:1009C40040EB830008BF20F00100704711F0804F16
:1009D40021D113F13872BCBF01F00040704741F4DB
:1009E40080114FEA5252C2F11802C2F1200C10FADF
:1009F4000CF320FA02F018BF40F001004FEAC123C3
:100A04004FEAD32303FA0CFC40EA0C0023FA02F366
:100A14004FEA4303CCE77FEA625307D150EA01333C
:100A24001EBF4FF0FE4040F44000704701F000400C
:100A340040F0FE4040F40000704700BF53B94AB98B
:100A4400002908BF00281CBF4FF0FF314FF0FF30D2
:100A540000F072B9ADF1080C6DE904CE00F006F8AF
:100A6400DDF804E0DDE9022304B070472DE9F04726
:100A7400089E04468846002B4BD18A42154667D906
:100A8400B2FA82F24AB1C2F1200701FA02F320FA63
:100A940007F7954047EA030894404FEA154E230CA4
:100AA400B8FBFEF71FFA85FC0EFB178843EA0843E0
:100AB40007FB0CF1994209D9EB1807F1FF3080F0DC
:100AC4001B81994240F21881023F2B445B1AA4B265
:100AD400B3FBFEF00EFB103344EA034400FB0CFCB2
:100AE400A44509D92C1900F1FF3380F00781A445EE
:100AF40040F2048102382C4440EA0740A4EB0C0481
:100B040000271EB1D4400023C6E900433946BDE89E
:100B1400F0878B4209D9002E00F0EB800027C6E94C
:100B2400000138463946BDE8F087B3FA83F7002F51
:100B340047D18B4202D3824200F2FA80841A61EBDD
:100B4400030301209846002EE0D0C6E90048DDE703
:100B540002B9FFDEB2FA82F2002A40F08F80491B0C
:100B64004FEA154E1FFA85F80127B1FBFEFC230C52
:100B74000EFB1C1143EA014308FB0CF1994207D90F
:100B8400EB180CF1FF3002D2994200F2CD8084467A
:100B9400591AA3B2B1FBFEF00EFB101443EA04444D
:100BA40008FB00F8A04507D92C1900F1FF3302D245
:100BB400A04500F2B6801846A4EB080440EA0C40B5
:100BC4009FE7C7F1200CBB4022FA0CFE4EEA030E4D
:100BD40001FA07F420FA0CF521FA0CF34FEA1E4847
:100BE4002543B3FBF8F92C0C08FB19331FFA8EFAD2
:100BF40044EA034309FB0AF49C4202FA07F200FAAE
:100C040007F10BD91EEB030309F1FF3080F0878055
:100C14009C4240F28480A9F1020973441B1BADB2CB
:100C2400B3FBF8F008FB103345EA034400FB0AFA6F
:100C3400A24508D91EEB040400F1FF336BD2A24590
:100C440069D90238744440EA0940A0FB0289A4EB44
:100C54000A044C45C2464B4654D351D0002E69D0A9
:100C6400B1EB0A0564EB030404FA0CFCFD40FC4000
:100C74004CEA0505C6E90054002747E7C2F1200302
:100C840020FA03F7954001FA02F021FA03F34FEA40
:100C9400154E3843010CB3FBFEF71FFA85F80EFB23
:100CA400173341EA034107FB08F38B4204FA02F4C9
:100CB40007D9691807F1FF3C2FD28B422DD9023F87
:100CC4002944CB1A81B2B3FBFEF00EFB103341EA88
:100CD400034100FB08F38B4207D9691800F1FF3C7C
:100CE40017D28B4215D902382944C91A40EA07475A
:100CF4003BE73746304609E70746E7E61846FBE692
:100D04004145ABD2B8EB020A69EB0E020138134637
:100D1400A4E76046E9E7184695E76746D1E78146C8
:100D24007CE702382C4447E7ACF1020C2B442FE754
:100D3400384608E73746E9E6704700BF70B50E4B02
:100D44000E4D1B682A7806464FF47A70B0FBF2F019
:100D5400B3FBF0F000F00AFB08B90F2E01D9012013
:100D640070BD0446024631464FF0FF3000F0A6FA4B
:100D74006E60204670BD00BF1400002000000020FB
:100D840008B50B4B1A6842F400721A601A6842F4F0
:100D940080621A601A6842F480721A60032000F0BC
:100DA4007BFA0020FFF7CAFF03F00CFD002008BD0A
:100DB400003C0240034A044B11681B780B44136047
:100DC400704700BF7C01002000000020014B186820
:100DD400704700BF7C01002038B50446FFF7F6FFDA
:100DE400631C054602D0044B1B781C44FFF7EEFF3E
:100DF400401BA042FAD338BD00000020024A136809
:100E040023F002031360704710E000E0024A136805
:100E140043F002031360704710E000E0002800F084
:100E24009180F8B5056C0446002D00F08180236C98
:100E3400DB0604D50023012084F83C30F8BD226C85
:100E44004D4923684D4D22F4885222F0020242F0AB
:100E5400020222644A6822F440324A604A686068A6
:100E640002434A6058682169A768E66820F48070E4
:100E740058605A6842EA01225A60586820F040706B
:100E840058605968A06A39435960996821F400612F
:100E940099609A68A84242EA06029A6054D0996816
:100EA400E56A21F0706199609A68104398609968C6
:100EB40021F0405199609A682A439A609968257E86
:100EC40094F8200021F0020199609A6842EA4502F0
:100ED4009A605A68002840D122F400625A60DA6AA3
:100EE400E56994F83070666922F47002DA62D86AAF
:100EF400013D40EA0550D862986820F4007098607B
:100F0400996841EA47219960996821F48061996060
:100F14009A68002042EA86229A606064236C23F077
:100F2400030343F001032364002384F83C30F8BD39
:100F340003F064FC6564236C84F83C50DB063FF5E5
:100F440079AF7CE7012070479A6822F070629A605A
:100F54009A6822F040529A60B0E742F40062616AF3
:100F64005A605A6822F460425A605A68013942EA67
:100F740041325A60B3E700BF002301400100000F73
:100F840010B490F83C3083B00022012B01925CD065
:100F940002689368012180F83C10D90714D4324BBD
:100FA400324C1B689168A4FB03439B0C03EB430383
:100FB40041F0010191600193019B2BB1019B013B25
:100FC4000193019B002BF9D19368DB072CD5036CAB
:100FD40023F4E06323F0010343F480730364536850
:100FE4005C0505D5036C23F4405343F48053036438
:100FF400036C13F480531CBF436C23F00603436457
:101004006FF0220100241A4B80F83C4011605968AB
:10101400C9060ED117498A420ED001F580718A4261
:101024001ED015498A4215D0002003B05DF8044B48
:101034007047104B9A42F7D1906810F04050F3D1AA
:10104400936843F080439360EFE7022003B05DF8B8
:10105400044B70475B6803F01F030F2BECD9E3E7E5
:101064005B68DB06E8D0DFE71400002083DE1B4367
:1010740000230140002001400022014003689A68D7
:10108400520502D59B68DA0540D470B50D46044676
:10109400FFF79CFE06466B1C226825D1136898074F
:1010A400FCD56FF012031360236C43F400732364C4
:1010B400936813F0405F15D1237E9BB9D36A13F470
:1010C400700F02D093685B050CD4236C23F48073F7
:1010D4002364206C10F4805004D1236C43F001038A
:1010E400236470BD002070BD13689907D9D425B15D
:1010F400FFF76CFE801BA842CDD9236C002243F07D
:101104000403236484F83C200320EAE7036C0022F0
:1011140043F02003036480F83C200120704700BFA3
:101124000368D86C704700BFF0B490F83C3082B0CC
:101134000022012B019200F094800D688A680368F4
:101144000124092DAFB280F83C4029D81C6905EB75
:1011540045064FF0070C0CFA06FC24EA0C041C614B
:101164001C6902FA06F626431E614E68062E06EB3B
:1011740086022AD8596B053A1F24944021EA0401B7
:101184005963596B07FA02F20A435A633D4A934280
:101194002DD0002380F83C30184602B0F0BC7047D4
:1011A40007EB4706DC681E3E4FF0070C0CFA06FC02
:1011B40024EA0C04DC60DC6802FA06F62643DE60EE
:1011C4004E68062E06EB8602D4D90C2E31D8A2F135
:1011D40023041F211A6BA14022EA01021A63196B2E
:1011E40007FA04F20A431A63264A9342D1D1122D14
:1011F4002DD0254B9D4238D1244A254B5168254C8E
:1012040021F480015160516841F4000151601B6870
:10121400A4FB03239B0C03EB83035B000193019B5F
:10122400002BB6D0019B013B0193019B002BF9D10C
:10123400AFE7A2F141011F24DA6A8C4022EA0402DA
:10124400DA62DC6A07FA01F22243DA629EE70F4BA4
:101254005A6822F400025A605A6842F480025A60C2
:1012640097E7022002B0F0BC7047112D91D1074BD3
:101274005A6822F480025A605A6842F400025A60A2
:1012840087E700BF00200140120000100023014046
:101294001400002083DE1B43074AD3684FF6FF0186
:1012A4000B40000243F0BF6300F4E06043F40033FA
:1012B4000343D360704700BF00ED00E0184BDB68C8
:1012C400C3F3022330B4C3F10705042D03F104046E
:1012D40028BF0425062C19D9033B4FF0FF349C404A
:1012E40022EA04044FF0FF32AA4021EA020101FA83
:1012F40003F2224312010028D2B20ADB00F160405B
:1013040000F5614080F8002330BC70470024234678
:10131400E8E7044B00F00F0003441A7630BC704732
:1013240000ED00E0FCEC00E0002807DB00F01F010A
:1013340001234009024A8B4042F82030704700BF25
:1013440000E100E000280DDB4309203301220649B7
:1013540000F01F0002FA00F041F82300BFF34F8FA2
:10136400BFF36F8F704700BF00E100E00138B0F1B8
:10137400807F0ED2084B10B4084C5860F02084F8DB
:1013840023000022072110469A6019605DF8044B7F
:1013940070470120704700BF10E000E000ED00E05E
:1013A4002DE9F04FDFF814C2DFF81482D1F800E021
:1013B40083B0002503E00135102D00F09480012353
:1013C400AB400EEA0304A342F5D14E6826F0100A9E
:1013D400BAF1020F00F08A804FEA45090322D0F8DF
:1013E40000B002FA09F2D24306F0030702EA0B0B3B
:1013F40007FA09F70AF1FF3A47EA0B07BAF1010FB6
:10140400076040F29980C7688B683A4003FA09F391
:101414001343C360F300CED500230193D8F84430BE
:1014240043F48043C8F84430D8F8443025F003022C
:1014340002F1804203F4804302F59C32019305F0EB
:101444000307019BD2F80890BF000F23BB4029EA91
:10145400030A544B98421ED003F5806398427ED011
:10146400514B984200F08280504B984200F08580A6
:101474004F4B984200F088804E4B984200F08B808E
:101484004D4B98420CBF4FF006094FF0070909FA7B
:1014940007F74AEA070AC2F808A0DCF80030E2437A
:1014A400F70354BF13402343CCF80030DCF8043076
:1014B400B70354BF13402343CCF80430DCF808309E
:1014C400F70254BF13402343CCF80830DCF80C3047
:1014D400B60205F1010554BF13402343102DCCF887
:1014E4000C307FF46CAF03B0BDE8F08F4FEAD50940
:1014F40000EB890905F00707D9F82020BF004FF059
:101504000F0B0BFA07FB22EA0B0A0A69BA4042EAFC
:101514000A02C9F820204FEA45090322D0F800A0A6
:1015240002FA09F2D24306F0030702EA0A0A07FAAA
:1015340009F747EA0A070760876807EA020ACF68DB
:1015440007FA09F747EA0A078760D0F804A0C6F348
:1015540000172AEA0303AF401F43476053E74FF0E5
:10156400010909FA07F74AEA070A94E74FF0020962
:1015740009FA07F74AEA070A8DE74FF0030909FA5F
:1015840007F74AEA070A86E74FF0040909FA07F75A
:101594004AEA070A7FE74FF0050909FA07F74AEA1A
:1015A400070A78E70000024000080240000C0240ED
:1015B400001002400014024000180240003C0140A8
:1015C4000038024002B9090481617047436931EA75
:1015D400030308BF09048161704700BF044A5169CD
:1015E400014200D1704708B5506102F0F5FE08BD14
:1015F400003C01402DE9F042054600688946016837
:1016040041F480610160016882B041F48071089CFA
:10161400016016461F46611C57D14369DA07FCD5A1
:101624005FFA89F909F0FE030361621C12D0436971
:101634009A0712D44369590553D4FFF7C7FB099B92
:10164400C01A84427CD3002C7AD02868EDE7436921
:10165400590546D443699B07F9D50023019343698F
:10166400019383690193019B611C03D076E0436974
:101674005B054ED443691A06F9D5012F7ED1F6B223
:101684000661671C03D08DE04369590541D4436961
:101694001E06F9D5036843F480730360631C40F0AD
:1016A400A1804369DF07FCD549F00109C0F8109017
:1016B400621C03D0B2E043695B0512D44369DB4387
:1016C40013F00203F7D1184620E04369DB07A7D4DF
:1016D400FFF77CFB099BC01A844231D384B328688A
:1016E40099E70368002243F400736FF480642021B7
:1016F400036044612A6385F83D1085F83E202B6C15
:1017040085F83C2043F004032B64012002B0BDE8BB
:10171400F082002220236FF4806141612A6385F8FE
:101724003D3085F83E202B6C85F83C2043F00403C3
:101734002B642B6C042B2ED0012002B0BDE8F08268
:10174400002220232A6385F83D3085F83E202B6C47
:1017540085F83C2043F020032B64EDE74369190628
:101764008BD443695B05D4D4FFF730FB099BC01AC3
:10177400844245D3002C43D0286875E7330A0361BB
:10178400631C03D01EE043695905C2D443691F0694
:101794003FF575AFF7E72A68136843F400731360E5
:1017A4000120B3E743691A063FF574AF43695B054B
:1017B400AFD4FFF70BFB099BC01A844220D3FCB1C2
:1017C40028685EE743691A063FF559AF43695A052D
:1017D4009FD4FFF7FBFA099BC01A844210D37CB153
:1017E4002868CDE74369DE073FF55EAFFFF7EEFA01
:1017F400099BC01A8442A3D3002CA1D028684DE7CA
:10180400002220232A6385F83D3085F83E202B6C86
:1018140085F83C2043F020032B648AE74369DB43CB
:1018240013F002033FF44FAF436959053FF559AF35
:10183400FFF7CCFA099BC01A844281D3002C3FF4F1
:101844007FAF286834E700BF002800F09780F8B520
:1018540090F83D30044603F0FF02002B00F087802F
:101864002268242384F83D30136823F001031360B5
:1018740000F0E4FA61684B4B99424BD84A4B9842CA
:101884007AD92268494B5568A3FB00639B0C25F069
:101894003F051D435560156A013325F03F052B4371
:1018A4001362D5694900431EB3FBF1F30133C3F35B
:1018B4000B0325F44F45042B38BF042325F0FF0503
:1018C4002B43D361D4E907351068216920F0C000A7
:1018D4002B43034313609068E568636920F4034075
:1018E40020F0FF00294301439160D168A06921F0F1
:1018F400FF0103430B43D3601168002341F001014E
:10190400202511601846236484F83D50236384F82D
:101914003E30F8BD264B98422ED92268234B566898
:10192400244FA3FB00539D0C26F03F062E434FF497
:101934009673566003FB05F3A7FB0353156AA66869
:101944009B0925F03F0501332B431362D56925F428
:101954004F45013825F0FF0596B901EB4101B0FB75
:10196400F1F00130C0F30B00C0B90123A8E780F8FF
:101974003C2002F075FF73E70120F8BD0120704799
:1019840001EB810101EB8101B0FBF1F00130C0F307
:101994000B000028E9D040F4404391E740F40043B1
:1019A4008EE700BFA08601007F841E0083DE1B43F8
:1019B400FF083D00D34D62102DE9F04F044687B077
:1019C40099460F469046BDF844A0129DFFF7FEF9D4
:1019D40094F83D30202B04D00227384607B0BDE8E8
:1019E400F08F064604E0FFF7F1F9801B19284AD866
:1019F40022689369DB4313F0020BF4D094F83C3073
:101A0400012BE9D013680121DB0784F83C1002D4D0
:101A140013680B4313601368A24823F40063136034
:101A2400222384F83D304022002384F83E2023649E
:101A3400A4F82AA0B4F82AC0109B63623946CDE901
:101A440000564B46E0624246A4F828C02046FFF701
:101A5400D1FD0746A8B9228D236812BB02905A69AA
:101A640002929A690292029A1A6842F400721A6007
:101A74000023202284F83D2084F83C3084F83E3052
:101A8400ABE70127A9E72023C4F830B084F83D3040
:101A940084F83EB0236C84F83CB043F02003236404
:101AA4009AE7012A00F09180022A00F0FD80059057
:101AB40059690591996905910599032A48D8012A1C
:101AC40000F0BC80022A74D0681C40F08D805A69F2
:101AD4005107FCD51A68616A22F480621A601B6996
:101AE4000B70638D616A228D013B9BB20131013A17
:101AF400638561622285681C226840F08180536995
:101B04005907FCD51368616A43F4007313601369C1
:101B14000B70638D606A218D2268013B9BB26385E3
:101B2400126900F1010C4B1EC4F824C023854270D5
:101B3400228D638D616A013A013B92B29BB20131FD
:101B4400228563856162002A92D0032A2368B6D96C
:101B540055B998E05A69D20600F18280FFF736F948
:101B6400801B854258D323685A695106F2D5626AAC
:101B74001B691370618D2368228D606A013989B2F3
:101B840061855969013A92B200F1010C4907228535
:101B9400C4F824C0D7D51B694370C9E75A695207F2
:101BA4000CD4FFF713F9801B854235D3002D33D0B5
:101BB4002368681CF2D15A695107FCD51A68616A16
:101BC40042F400721A601B69A2E7196821F480616B
:101BD40019600390596903919969039103991968EC
:101BE40041F40071196068E75A6952073FF572AF12
:101BF400FFF7ECF8801B85420ED36DB1236863E7D1
:101C040053695B073FF57EAFFFF7E0F8801B854221
:101C140002D3002D7FF46FAF00222023226384F8C7
:101C24003D3084F83E20236C84F83C20012743F0A7
:101C340020033846236407B0BDE8F08F4DB92CE08B
:101C44005A69D1060CD4FFF7C1F8801B8542E3D34F
:101C540023685A695006F3D5626A1B69137067E7F3
:101C640000226FF0100020215861226384F83D1097
:101C740084F83E20236C84F83C20012738462364F2
:101C840007B0BDE8F08F5A6950063FF570AF5A6946
:101C9400D006E5D4FFF79AF8BEE75A695206F6D59E
:101CA400DAE700BF0000FFFF196821F480611960C2
:101CB400196841F4006119600490596904919969A3
:101CC40004910499F9E600BF10B40D4C0D4A236841
:101CD40023F00303184320601369012943F004032C
:101CE40013610AD040BF20BF20BF064A5DF8044BF1
:101CF400136923F004031361704730BFF5E700BF95
:101D04000070004000ED00E060B1484A136803F041
:101D14000F038B4208D2CBB21370136803F00F0386
:101D24008B4201D00120704703682DE9F0419D07E3
:101D340014D55C0704D53E4CA26842F4E052A2607C
:101D44001A0704D53A4CA26842F46042A260384CA7
:101D54008568A26822F0F0022A43A260DF070446E5
:101D64000D4622D54268012A56D0931E012B304BD2
:101D74001B6858D9990725D52D4EB36823F0030362
:101D84001343B360FFF722F841F28837804605E039
:101D9400FFF71CF8A0EB0800B84242D8B3686268A9
:101DA40003F00C03B3EB820FF2D1204A136803F063
:101DB4000F03AB4209D9EBB21370136803F00F039E
:101DC400AB4202D00120BDE8F08123685A0706D552
:101DD4001749E0688A6822F4E05202438A601B07CC
:101DE40011D400F05FFA124B12499B68124AC3F3F4
:101DF4000313CB5C20FA03F300201360FEF79EFF6D
:101E04000020BDE8F0810A4A2169936823F4604305
:101E140043EAC1039360E4E7054B1B689E03ABD41C
:101E2400D0E70320EDE79801A6D4CBE7003C0240BD
:101E340000380240E463000814000020044B054A03
:101E44009B680549C3F382230868D35CD840704774
:101E540000380240F463000814000020044B054AD3
:101E64009B680549C3F342330868D35CD840704784
:101E740000380240F4630008140000202DE9F04308
:101E8400036813F0010583B004460BD0B449856B95
:101E9400D1F88C2022F0C0622A43B5FA85F5C1F846
:101EA4008C206D099A070BD5AD49E06BD1F88C20D5
:101EB40022F0C05202430028C1F88C2008BF01253B
:101EC40013F0040612D0A649266BD1F88C20B6F57F
:101ED400801F22F4401242EA060218BFB6FA86F6C0
:101EE400C1F88C2012BF7609002601251F070FD5E3
:101EF4009B48616BD0F88C2022F440020A43B1F570
:101F0400800FC0F88C2000F0F980002908BF01265A
:101F1400980600F1AA80DF0604D5924B94F8582065
:101F24001A602368180608D58D49E06CD1F894200E
:101F340022F440020243C1F89420590608D5884986
:101F4400A06CD1F8942022F080620243C1F894205E
:101F5400DA050CD58249606DD1F8942022F0006234
:101F64000243B0F1006FC1F8942008BF01269F0519
:101F740008D57B49606CD1F8942022F0805202434A
:101F8400C1F8942058050BD57548216DD0F89420DC
:101F940022F000520A43B1F1005FC0F894200BD044
:101FA400012D09D0B3F5006F06D0012E00F0E280B8
:101FB400002003B0BDE8F0836B4B694D00221A602A
:101FC400FEF704FF074604E0FEF700FFC01B0228EB
:101FD40041D82B681901F7D42368DA073FD5A26BDF
:101FE400002A3CD15E496068D1F88420D1F884503D
:101FF40002F4403205F070652A43A5680243606923
:1020040042EA851242EA0072C1F884205D0704D5D1
:10201400226BB2F5801F00F08480180703D5626B31
:10202400B2F5800F7DD0590504D5226DB2F1005F61
:1020340000F004811A0563D44B4B494D01221A6008
:10204400FEF7C4FE07462B681B01AED4FEF7BEFEA6
:10205400C01B0228F7D9032003B0BDE8F0839F0713
:10206400D4D5E26B002AD1D1BCE73D4B3F4F0022CF
:1020740001921A6C42F080521A641B6C03F0805374
:102084000193019B3B6843F480733B60FEF79EFE23
:10209400804605E0FEF79AFEA0EB08000228DAD895
:1020A4003B68D905F6D52E49236C0A6F12F44072A9
:1020B40003F4407011D082420FD00B6F2C4A23F4EA
:1020C400407301270020176010600B670B6FDA075D
:1020D40000F1D280236C03F44070B0F5407F00F02F
:1020E400A2801F498A6822F4F8128A601C4A116F80
:1020F400C3F30B030B43136723680CE7012507E7BE
:10210400201D0FC81B0643EA81136169034352086B
:1021140043EA0173013A124943EA0243C1F88430A5
:102124008AE70F496068D1F88420D1F8845002F41A
:10213400403205F0E0452A43A5680243206942EA9B
:10214400851242EA0062C1F88420D1F88C00A26AA8
:1021540020F01F00013A0243C1F88C2063E700BF5E
:1021640000380240E01147426800474200700040D6
:10217400400E4742494B4A4D00221A60FEF726FEA4
:10218400064605E0FEF722FE801B02283FF663AFF9
:102194002B689F00F6D42268500769D411071AD51A
:1021A400636BC3B93E49A069D1F88830E56903F48B
:1021B40040330343606A43EA851343EA0063C1F88A
:1021C4008830D1F88C30E06A23F4F853013843EABC
:1021D4000023C1F88C30D20514D5636DB3F1006FC0
:1021E40010D12F49A569D1F88830D4E9070203F04A
:1021F40070632B43520843EA8013013A43EA0243D3
:10220400C1F88830254B264C01221A60FEF7DEFD0A
:10221400054623689B003FF5CBAEFEF7D7FD401B78
:102224000228F6D917E71E48826823F0704122F489
:10223400F81221F440710A43826057E7184F656829
:10224400D7F88400D7F88420E168C0F3014C02F089
:10225400E042A0682A4342EA80120CF101054908D1
:1022640042EA4562013942EA0142C7F88420E1E6C4
:10227400236B002B96D091E70F46FEF7A7FD41F2A2
:102284008838814606E0FEF7A1FDA0EB0900404531
:102294003FF6E1AE3B6F9B07F5D51BE77000474265
:1022A40000380240284908B58B6803F00C03082B5A
:1022B40007D00C2B1DD0254A2548042B18BF1046E7
:1022C40008BD4A684B6813F4800302F03F0230D122
:1022D40049681E48C1F38811A1FB0001FEF7AEFB5B
:1022E400194B5B68C3F3014301335B00B0FBF3F0AC
:1022F40008BD4A684B6813F4800302F03F020ED114
:1023040049681248C1F38811A1FB0001FEF796FB4E
:102314000D4B5B68C3F30273B0FBF3F008BD4B686D
:102324000B48C3F38813A3FB00010023FEF786FBCD
:10233400EEE74B680648C3F38813A3FB00010023B0
:10234400FEF77CFBCCE700BF003802400024F40019
:1023540040787D012DE9F0410368DA0782B0044634
:1023640036D5AE498A6802F00C02042A00F0D28005
:102374008A6802F00C02082A00F0C880A7498A681B
:1023840002F00C020C2A00F004816368B3F5803F6C
:1023940000F00481B3F5A02F00F060819F4D2A68FE
:1023A40022F480322A602A6822F480222A60002BD8
:1023B40040F0F980FEF70AFD064605E0FEF706FD4B
:1023C400801B642800F20D812B689903F6D42368DE
:1023D4009A072FD5914A916811F00C0F00F0AB8049
:1023E400916801F00C01082900F0A1808B498A68EA
:1023F40002F00C020C2A00F02C81E368002B00F0A0
:102404001781874B854D01221A60FEF7DFFC0646D3
:1024140005E0FEF7DBFC801B022800F2E2802B685B
:102424009807F6D52B68226923F0F80343EAC20320
:102434002B6023681A0715D56369002B00F08D8083
:10244400784B764D01221A60FEF7C0FC064605E083
:10245400FEF7BCFC801B022800F2C3806B6F9B0755
:10246400F6D52368580731D56C4A136C13F08053A2
:1024740000F0838000266C4D2A68D10540F1A180CC
:10248400A368012B00F0B180052B00F0F780634DA9
:102494002A6F22F001022A672A6F22F004022A67B7
:1024A400002B40F0A780FEF791FC41F2883780466C
:1024B40006E0FEF78BFCA0EB0800B84200F2918026
:1024C4002B6F9807F5D4002E40F0D280A269CAB1D0
:1024D400524DA96801F00C01082924D0022A534A5C
:1024E4004FF00001116000F0D380FEF76FFC2C4622
:1024F400054604E0FEF76AFC401B022871D82368F5
:102504009B01F7D4002002B0BDE8F0814A6857026D
:102514007FF534AF414A126895037FF559AF62687D
:10252400002A7FF455AF012002B0BDE8F081526863
:1025340057023FF55BAF394A1268950702D5E26846
:10254400012AF0D1354920690A6822F0F80242EAEA
:10255400C0020A601A0785D56EE7324A2F4D136010
:10256400FEF734FC064604E0FEF730FC801B02282C
:1025740037D86B6F9F07F7D473E70193136C43F05D
:1025840080531364136C03F080530193019B012661
:1025940071E74A6856027FF5F8AEBBE71F4A136835
:1025A40043F480331360FEF711FC1C4D064604E02F
:1025B400FEF70CFC801B642813D82B689803F7D50E
:1025C40005E72A6842F480722A60FEF7FFFB07469B
:1025D4002B68DA053FF554AFFEF7F8FBC01B022861
:1025E400F6D9032002B0BDE8F0810C4A136F43F022
:1025F40001031367FEF7EAFB084D804641F2883772
:1026040005E0FEF7E3FBA0EB0800B842E9D82B6F26
:102614009B07F6D5002E3FF459AF29E0003802405D
:1026240000004742800E474200700040600047426D
:102634002F4A304D1360FEF7C9FB064604E0FEF74F
:10264400C5FB801B0228CCD82B689907F7D42368D4
:10265400F0E64A6856023FF5D0AE6CE7254B1A689F
:1026640042F480221A601A6842F480321A609AE7AF
:10267400204A136C23F08053136427E71D4B1A6F11
:1026840042F004021A671A6F42F001021A67B1E7B6
:10269400FEF79CFB064604E0FEF798FB801B02282D
:1026A4009FD82B689901F7D4D4E90732666AE06AA7
:1026B400216B1343A26A0F4C43EA861343EA006377
:1026C400520843EA0173013A0B4943EA02430122E7
:1026D4006B600A60FEF77AFB054605E0FEF776FBC1
:1026E400401B02283FF67DAF23689A01F6D509E71F
:1026F400000047420038024060004742002868D08A
:1027040038B5437F044603F0FF02002B45D023680D
:1027140053220220CA21607759625A62DA68550648
:1027240029D599686268D4E9045021F4E00121F0C4
:102734004001996099682A4302430A43E1689A6018
:1027440019611A69A16842EA01421A61DA6822F041
:102754008002DA609A68910623D5196CA06921F485
:10276400802119641A6CFF25024301211A64002098
:102774005D62617738BD4FF0FF32DA60FEF726FB09
:10278400054605E0FEF722FB401BB0F57A7F19D819
:102794002368DA685006F5D5C3E7027702F09AF8A1
:1027A400B5E7DA6822F0A002DA60FEF70FFB05460F
:1027B4002368DA689206D0D4FEF708FB401BB0F514
:1027C4007A7FF5D92268FF210423516201206377BF
:1027D40038BD0120704700BF037F012B00F09680B5
:1027E4002DE9F04102230E46012101770546437786
:1027F4000168002A36D08C6870783278B37814F087
:10280400400414BFF478F4704FEA002040EA024018
:1028140018BF240418430443CA2253234A624B6258
:10282400CB685A0657D504F07F3424F0FE440C607C
:102834008A68D6E9033022F480228A608A680343D6
:1028440013438B60CB6823F08003CB608B689B06BB
:102854005ED5FF2000230122486218466A772B7751
:10286400BDE8F0818F68307817F0400716BFF7781D
:10287400F7703F0409284FF0000407D90A38C0B2A2
:10288400092804F10104F9D82401E4B2737820433F
:10289400092B4FEA004457D900200A3BDBB2092B2D
:1028A40000F10100F9D800015FFA80FCB07843EA36
:1028B4000C0309284FEA032344D90A38C0B2092873
:1028C40002F10102F9D81201D2B23C43234310436E
:1028D40043EA0004A0E74FF0FF33CB60FEF776FA3B
:1028E40007462968CB6813F040089CD1FEF76EFABE
:1028F400C01BB0F57A7FF4D92A68FF210423516202
:10290400012085F81C806B77BDE8F08102207047B8
:10291400CB6823F0A003CB60FEF758FA064629687B
:10292400CC6814F0200494D1FEF750FA801BB0F563
:102934007A7FF4D92A68FF210423516201202C777D
:102944006B778DE70022C0E74FF0000CAEE700BFC5
:10295400037F012B7DD02DE9F041054602230120A0
:1029640028776B770E78CB7848788C7876030AB31F
:1029740046EA03431C4344EA00242B68CA21532239
:1029840059625A62DA68510648D524F07F4424F02B
:10299400C0045C60DA6822F08002DA609A68920609
:1029A40059D5FF20002201215862104669772A7701
:1029B400BDE8F081C70604D520F010000A30C0B28B
:1029C4004870092B4FF0000107D90A3BDBB2092BF1
:1029D40001F10101F9D80901C9B20B4309284FEAF1
:1029E40003434FF0000107D90A38C0B2092801F1A6
:1029F4000101F9D80901C9B20843092C4FEA0021A1
:102A040043D90A3CE4B2092C02F10102F9D81201BB
:102A1400D0B21E43314304430C43AEE74FF0FF32C0
:102A2400DA60FEF7D3F980462B68DF6817F04007B9
:102A3400ABD1FEF7CBF9A0EB0800B0F57A7FF3D960
:102A44002A68FF210423516201202F776B77BDE8A8
:102A5400F08102207047DA6822F0A002DA60FEF703
:102A6400B5F906462B68DC6814F0200499D1FEF70A
:102A7400ADF9801BB0F57A7FF4D92A68FF210423CD
:102A8400516201202C776B7792E70020C1E700BFE9
:102A94002DE9F0417B4B7C4C1B68057FA4FB034371
:102AA40082B0DB0A4FF47A7404FB03F3012D019323
:102AB40000F0D28002230124437704770368002ABC
:102AC4003ED09D68CA698E7815F0400516BFCC7853
:102AD400CD7025044C6914430A7834434E7844EA93
:102AE400024491F8202044EA062444EA02642C4378
:102AF4004A6A4F688D69CA2653215E62B2F5807FA7
:102B0400596245EA07059A6876D022F400729A6001
:102B1400DA68D2B262F42072DA6002E0DA6892070C
:102B24007CD4019A511E0191002AF7D10321FF247C
:102B34005C620B4602774177184602B0BDE8F0812B
:102B44009E680C78CF6916F0400C16BF91F803C04C
:102B540081F803C04FEA0C4C092C40F29080002508
:102B64000A3CE4B2092C05F10105F9D82D01EEB2B5
:102B74004D783443092D4FEA04464FF0000407D939
:102B84000A3DEDB2092D04F10104F9D82401E4B29F
:102B940091F802E02543BEF1090F4FEA05254FF0F5
:102BA40000080CD9AEF10A0E5FFA8EFEBEF1090FD1
:102BB40008F10108F6D84FEA08185FFA88F891F886
:102BC4002040092C4EEA080E56D90A3CE4B2092CDE
:102BD40002F10102F9D812015FFA82F84A69174337
:102BE40047EA0C0C4CEA0606354344EA080445EA75
:102BF4000E0545EA04647BE722F480729A60DA6881
:102C0400D2B262F4C072DA6002E0DA68D10728D482
:102C1400019A511E0191002AF7D187E71C629D6435
:102C24009A6842F400729A609A6842F400529A6078
:102C3400164A116841F400311160916841F4003181
:102C44009160FF2500225D620124134644770277D8
:102C5400184602B0BDE8F0810223184602B0BDE870
:102C6400F081DC615D649A6842F480729A609A68CB
:102C740042F480529A60DBE74FF00008AEE700268A
:102C840076E700BF14000020D34D6210003C0140E1
:102C9400037F012B4BD070B50546036801222A77C8
:102CA40002245322CA206C77B1F5807F58625A629D
:102CB4009A6825D022F400729A609A6822F400522D
:102CC4009A60FEF783F8064605E0FEF77FF8801B5E
:102CD400B0F57A7F0CD82B68DC6814F00204F4D0C9
:102CE4000022FF2001215862104669772A7770BDBF
:102CF4002A680323FF21516218462C776B7770BD35
:102D040022F480729A609A6822F480529A60FEF7E4
:102D14005DF8064605E0FEF759F8801BB0F57A7FAA
:102D2400E6D82B68DC6814F00104F4D0D8E702205C
:102D3400704700BF0368DA68D20510B5044602D5AF
:102D44009A68D10416D4DA68920502D59B689B046C
:102D540006D40D4A4FF4003101235161637710BD4D
:102D6400204600F073F82268D368DBB263F4207362
:102D7400D360EEE701F03AFB2368DA68D2B262F47A
:102D8400C072DA60DFE700BF003C0140037F012B23
:102D94005AD02DE9F041036817460E46022201215C
:102DA400427701775322CA2159625A629A685105BF
:102DB40005460DD5FEF70AF8044605E0FEF706F8C9
:102DC400001BB0F57A7F35D82B68DA685207F5D442
:102DD4009A6822F480629A60FDF7F8FF804606E064
:102DE400FDF7F4FFA0EB0800B0F57A7F19D8286846
:102DF400C46814F00404F3D0836823F007038360E9
:102E0400826817438760466183680022FF2443F485
:102E14008063012183604462104669772A77BDE8A4
:102E2400F0812A680323FF21516218462C776B77BF
:102E3400BDE8F08129680323FF2000224862184678
:102E44006B772A77BDE8F08102207047704700BF96
:102E540000283BD090F85120002370B502F0FF0108
:102E64000446836262B31846D4E90135D4E90321E8
:102E74002B4313436269E569266A0B431343A26932
:102E840021682B43022584F85150334302F4007522
:102E94000E682B43120C656A02F0040203432A43B2
:102EA40026F040060E600B604A60CB69002223F4D2
:102EB40000630125CB611046626584F8515070BDF2
:102EC40080F8501001F01EFDA06ACDE70120704784
:102ED4002DE9F04190F85040012C82B000F0888038
:102EE4001D46012380F85030044616468846FDF7F7
:102EF4006DFF074694F85100C0B2012809D00220A2
:102F04000122002384F8512084F8503002B0BDE837
:102F1400F081B8F1000FF3D0002EF1D0A268C4F80C
:102F2400308000230321B2F5004F84F85110A363CD
:102F34006365A387C4E91033E686A686E38723681E
:102F440003D11A6842F480421A601A68520653D5B3
:102F5400E2686168B2F5006F7ED0002968D198F804
:102F640000201A73E38E226B013B9BB20132E3868D
:102F740022636B1C45D1E38E9BB28BB123689A68A4
:102F840096075FD5226B12781A73E38E226B013B8E
:102F94009BB2E386E38E01329BB22263002BEDD118
:102FA4006D4B6E491B686268A1FB03135B0D4FF404
:102FB4007A7101FB03F3B2F5827F019307D13AE002
:102FC400019B2268013B019393681B0602D5019B78
:102FD400002BF5D1A36833B922680093D36800931A
:102FE40093680093009B606D003018BF012087E751
:102FF400022002B0BDE8F0811A6842F040021A6073
:10300400A6E7E38E9BB2002BCAD023689A68920786
:103014001BD5226B12781A73E38E226B013B9BB291
:10302400E386E38E01329BB22263002BEDD1B7E736
:10303400012E9ED193E7681C226855D19368190626
:10304400FCD4C7E7FDF7C2FE95E7FDF7BFFEC01B42
:10305400A842D6D3032053E700293BD0012E39D010
:10306400681C20D1E38E9BB2002B99D023689A6808
:10307400910710D5226B32F8021BD960E38E2263CC
:10308400013B9BB2E386E38E9BB2002B88D023687E
:103094009A689107EED4FDF799FEE3E7FDF796FEF3
:1030A400C01BA842D6D2E38E9BB2002B3FF478AF6C
:1030B40023689A689607F1D5226B32F8021BD9600F
:1030C400E38E2263013B9BB2E386E38E9BB2002B2B
:1030D400EED165E7414631F8022BDA60E38E2163D5
:1030E400013B9BB2E386BBE793681A067FF572AF98
:1030F400FDF76CFEC01B85429DD8D4E900205168C1
:10310400A36821F0E001B0F5827F516018D0A16A74
:10311400B1F5005F07D1116821F400511160116805
:1031240041F400511160012284F85120626D0020A5
:1031340042F020022021626584F8500061654AE76C
:10314400B3F5004F02D0B3F5806FE0D1116821F0E0
:1031540040011160DBE700BF14000020819F5E1670
:103164002DE9F0414568B5F5827F044682B00F46EB
:1031740090F8500090461E4618D0012800F0BD80FB
:10318400012384F85030FDF721FE054694F85100E0
:10319400C0B2012800F0B58002200122002384F887
:1031A400512084F8503002B0BDE8F081A368002BB0
:1031B400E3D10423012884F8513000F09E800123D8
:1031C40084F85030FDF702FE94F851306268DBB2A7
:1031D400012B054607D0B2F5827FDDD1A168002915
:1031E400DAD1042BD8D1002F00F03581B8F1000FCB
:1031F40000F0318194F851302168042B1CBF052361
:1032040084F8513000236365A4F83E80A4F8368026
:103214000868A7634006A4F83C802763A4F83480B8
:10322400C4E9103303D40B6843F040030B60E36834
:10323400B3F5006F00F05481002A00F04781B8F123
:10324400010F00F04381701C40F0B281012526E09B
:1032540023689A6891070FD5E28E92B262B15DB18C
:10326400226B12781A73E28E216B2368013A92B2B0
:103274000131E286216300259A68D2070DD5E28FD9
:1032840092B252B1A26BDB681370E38FA26B013B65
:103294009BB20132E387A2630125FDF797FDE38E1C
:1032A4009BB2002BD4D1E38F9BB2002BD0D1914B96
:1032B400914A1B686168A2FB03235B0D4FF47A7289
:1032C40002FB03F3B1F5827F019307D1A4E1019BD3
:1032D4002268013B01939368190602D5019B002BD8
:1032E400F5D1A068002840F0548123680090DA6882
:1032F40000929B680093009B4FE7022002B0BDE858
:10330400F081002F3FF449AFB8F1000F3FF445AF0F
:10331400A268A763042384F85130B2F5004F4FF03C
:10332400000363652363A386C4E91033A4F83E80D5
:10333400A4F83C80E386236800F084801A6852066F
:1033440003D41A6842F040021A60E268B2B9711CF0
:103354000BD069E0A26B1B7B1370E38FA26B013B64
:103364009BB20132E387A2632368E28F92B2D2B1A7
:103374009A68D207EED4FDF729FDF5E7771C24D12E
:10338400E28F92B27AB19A68D00760D5A16BDA68FD
:1033940021F8022BE28FA163013A92B2E287E28F15
:1033A40092B2002AEFD16268B2F5827F55D09A6852
:1033B400D207FCD4606D003018BF0120EDE6FDF7A4
:1033C40005FD401BB0423BD22368E28F92B27AB132
:1033D4009A68D007F3D5A16BDA6821F8022BE28F43
:1033E400A163013A92B2E287E28F92B2002AEFD14E
:1033F4006268B2F5827F06D12FE0FDF7E7FC401B3F
:10340400864223683FD9711CD1D09B68DB07F4D472
:10341400D0E7A26B1B7B1370E38FA26B013B9BB2C3
:103424000132E387A2632368E28F92B2002ADFD0DD
:103434009A68D707EDD4FDF7C9FC401BB042F2D31C
:103444000320AAE61A6822F480421A6076E7FDF7A0
:10345400BDFC236894E701209FE6A268B2F5004F03
:103464002FD0B2F5806F76D0711C03D19A68120602
:10347400FCD49FE79B681B069CD5FDF7A7FC401B6B
:1034840086422368F0D861685A68B1F5827F22F0D9
:10349400E0025A607FD0A26AB2F5005F07D11A68D1
:1034A40022F400521A601A6842F400521A6001238E
:1034B40084F85130636D43F0200363652023636512
:1034C40078E71A6822F040021A60CDE73B780B7364
:1034D400E38E226B013B9BB20132E3862263B2E6A8
:1034E400002A4DD0B8F1010F4AD0771C40F0B580C6
:1034F400012527E014000020819F5E1623689A6846
:1035040096070DD5E28E92B252B14DB1216B31F8CE
:10351400022BDA60E28E2163013A92B2E286002540
:103524009A68D0070CD5E28F92B24AB1A26BDB68DD
:1035340022F8023BE38FA263013B9BB2E3870125A0
:10354400FDF744FCE38E9BB2002BD7D1E38F9BB2F3
:10355400002BD3D1ABE61A6822F040021A60771C24
:1035640003D19A68D507FCD424E79B68D8077FF574
:1035740021AFFDF72BFC401B86422368EFD882E77E
:1035840037F8023BCB60E38E2763013B9BB2E386B3
:10359400ABE7002001E6A268B2F5004F03D0B2F514
:1035A400806F7FF478AF1A6822F040021A6072E7E5
:1035B4000127E38E9BB21BB9E38F9BB2002B30D063
:1035C40023689A6891070FD5E28E92B262B15FB117
:1035D400226B12781A73E28E216B2368013A92B23D
:1035E4000131E286216300279A68D2070DD5E28F64
:1035F40092B252B1A26BDB681370E38FA26B013BF2
:103604009BB20132E387A2630127FDF7DFFB401B76
:1036140086427FF615AFCCE7226893681D06FCD47A
:103624005FE63B4B61681B683A4AB3FBF2F24FF426
:103634007A7303FB02F3B1F5827F01937FF44EAEFC
:1036440004E0FDF7C3FB401B864236D9771C226891
:10365400E3D093681806F4D443E60127E38E9BB2C3
:103664001BB9E38F9BB2002BDBD023689A689107C8
:103674000DD5E28E92B252B14FB1216B31F8022BCB
:10368400DA60E28E2163013A92B2E28600279A68F8
:10369400D2070CD5E28F92B24AB1A26BDB6822F852
:1036A400023BE38FA263013B9BB2E3870127FDF753
:1036B4008DFB401B8642D1D8C2E6D4E900315A685A
:1036C400B1F5827F22F0E0025A6014D0A26AB2F50A
:1036D400005F07D11A6822F400521A601A6842F493
:1036E40000521A60012084F85100636D20221343B4
:1036F4006365626551E5A268B2F5004F02D0B2F588
:10370400806FE3D11A6822F040021A60DEE700BF3E
:103714001400002000366E0100285CD0F8B590F843
:103724003D30044603F0FF02BBB322683A4EA5695C
:10373400E0686168022384F83D30B24213684CD0DB
:10374400B2F1804F58D0A6F57C46B2422AD006F595
:103754008066B24226D006F58066B24222D006F5D3
:103764007846B2421ED006F57056B24213D006F522
:103774008066B2420FD006F58066B2420BD0A6F541
:103784009836B24207D006F58066B24203D006F5F9
:103794008066B24238D1266933E080F83C2001F0DB
:1037A400FDF8C2E7A6681D4F23F070033343266972
:1037B40023F44073334323F080032B43BA42136052
:1037C400D062916201D163691363012353610020C4
:1037D40084F83D30F8BD01207047A768266923F0BE
:1037E40070033B4323F44073334323F080032B43A0
:1037F4001360D0629162E6E7A768266923F070033C
:103804003B4323F44073334323F080032B4313607F
:10381400D0629162D9E700BF00000140000401407A
:103824000222036810B580F83D20196A41F2111292
:103834001142044608D1196A40F24442114203D1AC
:103844001A6822F001021A60204601F0C5F800202F
:1038540084F83D0084F83C0010BD00BF0368DA68BA
:1038640042F00102DA609A6802F00702062A03D0E5
:103874001A6842F001021A600020704790F83C3048
:10388400012B5AD002220368F0B480F83D209A68D4
:103894000C6822F47F4222F077020125402C80F844
:1038A4003C509A6074D04AD9602C2DD056D9702CD3
:1038B4001AD0B4F5005F0ED1D1E90152CC689968F1
:1038C4002A4342EA042221F47F410A439A609A6817
:1038D40042F480429A600023012280F83D2080F85F
:1038E4003C30F0BC18467047D1E90152CC68996865
:1038F4002A4342EA042221F47F410A439A609A68E7
:1039040042F077029A60E6E71C6A4D68CE6824F0BC
:1039140010041C6299691A6A21F4704122F0A00211
:1039240042EA051241EA063199611A629A6822F064
:10393400700242F067029A60CDE702207047102CB3
:1039440004D03DD9202C01D0302CC4D19A6844F045
:10395400070422F0700214439C60BCE7502CBAD1D7
:103964001D6A1E6A4C68CF6826F001061E629A69B9
:1039740025F00A0122F0F00242EA071221439A617B
:1039840019629A6822F0700242F057029A60A2E724
:103994001D6A1E6A4C68CF6826F001061E629A6989
:1039A40025F00A0122F0F00242EA071221439A614B
:1039B40019629A6822F0700242F047029A608AE71C
:1039C400002CC3D087E700BF704700BF704700BF1B
:1039D400704700BF704700BF03681A69910710B5AC
:1039E400044602D5DA6892075FD41A69500702D5F3
:1039F400DA68510746D41A69120702D5DA68100743
:103A04002ED41A69D20602D5DA68D00618D41A69F7
:103A1400D10702D5DA68D2075DD41A69100602D537
:103A2400DA6811065FD41A69520602D5DA685006BC
:103A340061D41A69910602D5DA68920643D410BD9E
:103A44006FF010021A61DB69082213F4407F2277B9
:103A5400204664D0FFF7BAFF002223682277D6E716
:103A64006FF008021A61DB69042299072277204665
:103A740052D1FFF7A9FF2046FFF7AAFF00222368CF
:103A84002277BEE76FF004021A619B69022213F4E5
:103A9400407F227720463CD1FFF796FF2046FFF770
:103AA40097FF002223682277A5E76FF002021A61CC
:103AB4009B6901229B07027725D0FFF787FF00222D
:103AC4002368227791E76FF0200220461A61BDE84F
:103AD400104000F04DB86FF001021A61204600F06A
:103AE400EBFC236899E76FF080021A61204600F02E
:103AF40041F8236897E76FF040021A612046FFF708
:103B040069FF236895E7FFF75FFF2046FFF760FF33
:103B1400D5E7FFF75BFFC4E7FFF758FFAEE7FFF712
:103B240053FF2046FFF754FF96E700BF90F83C2070
:103B3400012A1AD070B40222046880F83D20D1E929
:103B4400006503466068A26820F0700122F08002DC
:103B540031432A430126002561602846A26083F888
:103B64003D6083F83C5070BC70470220704700BF32
:103B7400704700BF704700BF002800F004812DE9A2
:103B8400F84390F83930044603F0FF02002B00F0AC
:103B9400F58023682669242284F83920D86820F423
:103BA4000050D4E90225D8601969E06921F4405134
:103BB40029431961D9686569324321F416412A43BE
:103BC40021F00C0102430A43DA605A69A16922F424
:103BD40040720A43B0F5004F5A61AA4A71D0934229
:103BE40000F0D38002F58062934200F0CE80FEF7AD
:103BF40025F9A54F636800EB800000EB80009B0073
:103C0400B0FBF3F3A7FB03235B091D01FEF716F9D1
:103C1400666800EB800000EB8000B600B0FBF6F6AF
:103C2400FEF70CF9636800EB800000EB80009B005A
:103C3400B0FBF3F3A7FB03235B094FF0640909FB13
:103C440013631B013233A7FB03235B0903F0F00664
:103C5400FEF7F4F8626800EB800000EB800093004C
:103C6400B0FBF3F8FEF7EAF8D4E9002100EB80009A
:103C74008B0000EB8000B0FBF3F3A7FB03135B099D
:103C840009FB13831B013233A7FB0313C3F3431351
:103C940033432B449360136923F4904313615369B2
:103CA40023F02A035361D3680025202143F40053F1
:103CB400D3602846E56384F8391084F83A10BDE8E7
:103CC400F883934200F09F8002F58062934200F0F3
:103CD4009A80FEF7B3F86C4F636800EB800000EB4A
:103CE40080005B00B0FBF3F3A7FB03235B091E0119
:103CF400FEF7A4F8656800EB800000EB80006D001F
:103D0400B0FBF5F5FEF79AF8636800EB800000EB72
:103D140080005B00B0FBF3F3A7FB03235B094FF0C8
:103D2400640909FB1353DB003233A7FB03231B098C
:103D340003F4F875FEF782F8626800EB800000EB8C
:103D440080005300B0FBF3F8FEF778F8D4E90021C3
:103D540000EB80004B0000EB8000B0FBF3F3A7FB0B
:103D640003135B0909FB1383DB003233A7FB031343
:103D7400C3F3421333442B4493608CE780F8382018
:103D840000F03AFE05E701207047FEF767F83E4F62
:103D9400636800EB800000EB80009B00B0FBF3F352
:103DA400A7FB03235B091D01FEF758F8666800EBC7
:103DB400800000EB8000B600B0FBF6F6FEF74EF88C
:103DC400636800EB800000EB80009B00B0FBF3F322
:103DD400A7FB03234FF064095B0909FB13631B0171
:103DE4003233A7FB03235B0903F0F006FEF736F832
:103DF400626800EB8000930000EB8000B0FBF3F8F6
:103E0400FEF72CF830E7FEF729F81F4F636800EB44
:103E1400800000EB80005B00B0FBF3F3A7FB0323FF
:103E24005B091E01FEF71AF8656800EB800000EBE1
:103E340080006D00B0FBF5F5FEF710F8636800EB49
:103E4400800000EB80005B00B0FBF3F3A7FB0323CF
:103E54004FF064095B0909FB1353DB003233A7FB02
:103E640003231B0903F4F875FDF7F8FF626800EB00
:103E74008000530000EB8000B0FBF3F8FDF7EEFF89
:103E840064E700BF001001401F85EB512DE9F041AC
:103E9400002488B0CDE90344CDE905442F4B0094B8
:103EA40007941A6B2E4F2F4D2F4E42F004021A63C3
:103EB4001A6B02F004020092009A01941A6B42F009
:103EC40001021A631A6B02F001020192019A029430
:103ED4001A6B42F002021A631B6B03F00203029393
:103EE400224638462321029BFDF76CFB284601221B
:103EF4000421FDF767FB1D4B05944FF4005203A901
:103F04003046CDE903234FF00208FDF749FA304665
:103F140003A90126CDE90444CDF80C80FDF740FA4D
:103F2400384603A92323CDE90336CDE90544FDF73B
:103F340037FA042303A928460393CDE90464CDF892
:103F44001880FDF72DFA224621462820FDF7B6F900
:103F54002820FDF7E9F908B0BDE8F08100380240F7
:103F6400000002400004024000080240000011105A
:103F740010B50021ACB00C46302209A802F0F1F9CA
:103F840021465C2215A8CDE90344CDE905440794F4
:103F940002F0E7F91F4B0194196C1F4A41F080515C
:103FA40019641B6C03F080530193019B0294136802
:103FB40023F4404343F48043136013680E9403F4E2
:103FC400404302930A210123102208A8029C08916D
:103FD400CDE90A33CDE90C23FEF7BCF900B1FEE7C5
:103FE40003460F24802203A819460493CDE906331F
:103FF40003940592FDF788FE00B1FEE720224FF4FA
:10400400007315A815922593FDF738FF00B1FEE75C
:104014002CB010BD00380240007000402DE98048EB
:1040240095B0FCF7ADFEFFF7A3FFFFF72FFFA74BFB
:10403400A74AA84C1A604FF48041002218465C60DD
:104044001961C3E90222C3E90522C3E90722FDF786
:10405400FBFB00B1FEE7A04BA04D986002464FF475
:10406400007118464FF482740A26C3E903225A6188
:10407400C3E90722C3E90922C3E900549961DE6256
:10408400FEF7E6FE034600B1FEE7954C9548964AD6
:1040940020604FF00071012720460A93636023617A
:1040A400237684F82030E362E36084F83030CDE98D
:1040B4000B330D93A160A262E7616761FCF7AEFE6A
:1040C400034600B1FEE720460AA90C93CDE90A672E
:1040D400FDF72AF8034600B1FEE7844C0A904FF03E
:1040E40080425F21CDE90B000D900590A060206116
:1040F400A0612260204610226160E2600693FFF70F
:104104000BFB00B1FEE74FF480530AA920460A9343
:10411400FFF7B4FB034600B1FEE705A92046CDE94D
:104124000533FFF703FD054600B1FEE731460246BD
:104134001C20FDF7C3F81C20FDF7F6F82046FFF716
:104144008DFB6B4E0995282229460DEB0200CDE923
:104154000555CDE90755049502F003F94FF498731A
:10416400644975607F223046C6E90223C6E90455D6
:10417400B5613160FEF7C2FA034600B1FEE73A4684
:1041840005A93046ADF814308DF81630CDE9083362
:10419400FEF722FB00B1FEE714A9574B41F8403D5E
:1041A4003A463046FEF7D4FB00B1FEE70121002376
:1041B4000A468DF848104FF070604FF00041ADF89A
:1041C40028300B93CDE90D3311930F914FF4807385
:1041D400109002250AA946488DF82A501393FEF739
:1041E40057FC024600B1FEE701464148FEF7CEFD0A
:1041F40000B1FEE7414B424A1861C3E90200C3E93A
:1042040006004FF416511A6018460C2259605A6180
:10421400FFF7B2FC00B1FEE700F094FC394DDFF883
:10422400ECA0DFF8EC90DFF8EC80DFF8ECB02F4E78
:10423400354F2B78072B30D0ABB1012B0DD0022B8F
:1042440000F0B080032B00F0A680042B00F0B280B5
:10425400052B00F09B80062B60D0012202213846FA
:10426400FDF7B0F9E5E7039300F04AF9039BA36077
:104274004FF08041CDE90A33CDE90C33CDE9053364
:104284002361A3615F221023304621606260E360F2
:10429400FFF742FA00285ED0FEE720213846FDF7FA
:1042A40095F94FF4FA70FCF797FDFCF7A7FD01218F
:1042B4000846FDF709FDFCF7A9FDFCF761FDFFF7D2
:1042C40057FEFFF7E3FD00232B70C6E780010020B3
:1042D40000540040A08601003C0200200030014050
:1042E400D4010020002001400100000F94020020AE
:1042F4001C0200200028004001010100D802002017
:10430400004400409C00002000000240780100208E
:1043140018030020080000208C4F00206423009321
:10432400702201235946052000F000FD9AF8003060
:1043340013B999F80030C3B16B78042B15D8013345
:1043440000226B7031238AF8002089F800202A703B
:1043540088F8003081E74FF480530AA930460A9365
:10436400FFF78CFA034640B1FEE75F23002288F88A
:10437400003007236A702B706FE705A93046CDE93A
:104384000533FFF7D3FB0246C8B1FEE700F0F8F9A6
:1043940006232B7061E700F0BBF800F0F9F8042362
:1043A4002B705AE73046FFF73BFA00F05FF903231E
:1043B4002B7052E700F0A0F905232B704DE70A217A
:1043C4001C20FCF77BFF1C20FCF7AEFF3046FFF7F8
:1043D40045FA01232B7040E7B0F5005F00D0704729
:1043E40020210148FDF7F2B80000024070B54FF4F7
:1043F400807190B000252D4CFEF74AFC29462822F6
:1044040006A8CDE90155CDE903550595009501F0C0
:10441400A8FF274965607F224FF498732046C4E9BA
:104424000455A5612160C4E90223FEF767F900B1D0
:10443400FEE7034601A901222046ADF804308DF8B9
:104444000630CDE90433FEF7C7F900B1FEE710A941
:10445400184B41F8403D01222046FEF779FA00B19D
:10446400FEE70123ADF818000790CDE909000D908F
:104474004FF000401A468DF838300B904FF480739B
:1044840006A902264FF0706520468DF81A600C9537
:104494000F93FEF7FDFA024600B1FEE720461146EF
:1044A400FEF774FC00B1FEE710B070BD1C020020E2
:1044B40000280040010101000368B3F1804F00D0DF
:1044C400704710B50D4C6088B0F5806F06D3237922
:1044D400092B0DD801330020237160802378022B2F
:1044E40005D0217900F09EF863880133638010BD04
:1044F4000023022222706380237110BD9C000020DF
:104504004FF480620021014801F02BBFFC6F0020B2
:10451400F0B5184B184D9FED197A87B003F58061FB
:104524002A4613F8010F07EE900AF8EE677A8B42D9
:1045340077EEC77AE2EC017AF3D1114E114B32686F
:10454400009203A8104A152101F0ACFA736873B104
:104554000E4F00243368990004FB01F17A1803A874
:10456400294401F0B1FA73680134A342F2D807B0C8
:10457400F0BD00BF1B0300208C2F00200000FE4272
:104584000C000020A8000020906300088C3F00204D
:10459400F0B5204A204C87B000200023C3F34E011D
:1045A40004EB8101023309685060B3F5006F1160B8
:1045B40002F10802F2D1012300224FF4806101A824
:1045C40000F048FE01A8134901F04CFA12491148C1
:1045D4004FF4806201F0DCFCDFF844C00F4B9CF820
:1045E400D070002103F16906581C0D467E2403F89F
:1045F400015F80F828401A787E2A84BF01210F4683
:104604009E42F4D119B90023037007B0F0BD8CF8B1
:10461400D070F8E7FC4F00208C3F00201F2F0020B3
:10462400A800002070B500EB812664210C480D4DD4
:10463400FCF724FD38B10C4C0948FCF7A1FC94F8B4
:10464400D130735570BD0648074CFCF769FD84F8FA
:10465400D1000348FCF794FC94F8D130735570BD35
:10466400D401002020070020A80000202DE9F84FE5
:104674001B491C4C1C481D4F04F5806601F5005570
:1046840011F801BF14F801CF91F8003491F800A893
:1046940015F8018F91F8009C10F8012B95F800E4AF
:1046A400DC44634453444B444344734490F8FF83D1
:1046B40090F8FFE790F8FFCB1344434473446344FA
:1046C400DBB2A7FB0323DB08B4422370D8D14FF439
:1046D40080620749074801F039FEBDE8F88F00BF42
:1046E4001F070020FB6F002020170020CDCCCCCC6E
:1046F400FC6F00201C0300202DE9F04FDFF87C80C4
:104704001C4C1D4D87B04FF0020A4FF0640B0DF1A5
:1047140014094046CDE901ABCDF8009001230722EE
:10472400A221FDF749F92778CDF800902926CDE993
:1047340001AB47F00107404601230722A42127705B
:104744002E70FDF739F92778CDF80090CDE901AB4B
:10475400404647EA0A0701230722A6216E70277004
:10476400FDF72AF92378AE7043F00403237007B0F1
:10477400BDE8F08F18030020D4020020800100203F
:1047840038B50B4B0B4C1A785D7822709B780A492C
:10479400A3706922E01C657001F0D8FD074A084B3C
:1047A400127893F8D03084F86C2084F86D3038BDDA
:1047B400D40200208C4F0020202F0020180300205A
:1047C400A800002082B00C4B002100915A6C42F4E6
:1047D40080425A645A6C02F480420092009A019119
:1047E4001A6C42F080521A641B6C03F080530193DC
:1047F400019B02B0704700BF0038024010B5016849
:10480400154A88B000239142CDE90333CDE905333D
:10481400079301D008B010BD02F58C320193516C9E
:104824000E4841F480715164516C01F4807101911E
:1048340001990293136B43F004031363136B03F0A6
:10484400040302930122032303A9029CCDE9032359
:10485400FCF7A6FD08B010BD00200140000802408E
:1048640070B50268184B88B000249A42CDE903441D
:10487400CDE90544079401D008B070BD134D0194EF
:104884002B6B134843F002032B632B6B03F00203DF
:104894000193C0230393122201230492059303225C
:1048A400042303A9CDE90623019EFCF779FD0294B4
:1048B4002B6C43F400132B642B6C03F4001302934E
:1048C400029B08B070BD00BF005400400038024095
:1048D4000004024008B50268084B9A4200D008BDA3
:1048E400074B01210022196029201146FCF7E6FC40
:1048F4002920BDE80840FCF717BD00BF0028004090
:104904003C0E4742F0B50268214B89B000249A421C
:10491400CDE90344CDE90544079401D009B0F0BDC5
:1049240003F5843300945A6C1A4842F480525A6452
:104934005A6C02F480520092009A01941A6B42F06D
:1049440001021A631A6B02F001020192019A0294A5
:104954001A6B42F002021A631B6B03F00203029308
:104964000227C0230326052503A9029ACDE90337AC
:10497400CDE90665FCF714FD082303A9064804974E
:10498400CDE9066505940393FCF70AFD09B0F0BD73
:104994000030014000000240000402400368B3F10B
:1049A400804F00D0704700B583B0002203F50E336A
:1049B4000192196C41F0010119641B6C03F00103AD
:1049C400019311461C20019BFCF778FC1C2003B0CA
:1049D4005DF804EBFCF7A8BC0368B3F1804F00D08A
:1049E4007047044A136C23F0010313641C20FCF782
:1049F400A9BC00BF0038024070B50168184A88B0ED
:104A040000239142CDE90333CDE90533079301D067
:104A140008B070BD02F5FA320193116C114841F4EB
:104A240000311164116C01F4003101910199029378
:104A3400136B43F001031363136B03F0010302933D
:104A44000C230322039303A9072302250124029EB6
:104A5400CDE90454CDE90623FCF7A2FC08B070BDEF
:104A64000044004000000240704700BFFEE700BF62
:104A7400FEE700BFFEE700BFFEE700BF704700BFD0
:104A8400704700BF704700BFFCF794B90148FEF7B8
:104A9400A3BF00BF940200204FF40050FCF79EBD5A
:104AA4000148FEF747B900BF1C020020F0B5234CB3
:104AB400234D83B00646070C86232046002204219A
:104AC4008DF805708DF80430FCF77CFD01A9642392
:104AD40028460222FEF7FCF9204601220421FCF7B5
:104AE40071FD370A20468723002204218DF8043003
:104AF4008DF80570FCF766FD01A96423284602229F
:104B0400FEF7E6F9204601220421FCF75BFD20466E
:104B14008823002204218DF804308DF80560FCF709
:104B240051FD01A9642328460222FEF7D1F920464B
:104B340001220421FCF746FD03B0F0BD000402404D
:104B44003C02002070B5002282B001217348744CED
:104B5400744E02ADFCF736FD0A20FCF73DF942F62F
:104B64008B3325F8043D204600220421FCF72AFD5E
:104B74002946642330460222FEF7AAF92046012280
:104B84000421FCF71FFD2046812300220421ADF8F7
:104B94000430FCF717FD2946642330460222FEF751
:104BA40097F9204601220421FCF70CFD204648F227
:104BB400810300220421ADF80430FCF703FD2946EB
:104BC400642330460222FEF783F9204601220421A1
:104BD400FCF7F8FC204648F2811300220421ADF8CA
:104BE4000430FCF7EFFC2946642330460222FEF72A
:104BF4006FF9204601220421FCF7E4FC204642F22E
:104C04009D2300220421ADF80430FCF7DBFC294687
:104C1400642330460222FEF75BF920460122042178
:104C2400FCF7D0FC204647F29E4300220421ADF855
:104C34000430FCF7C7FC2946642330460222FEF701
:104C440047F9204601220421FCF7BCFC20464FF61C
:104C5400A37300220421ADF80430FCF7B3FC294609
:104C6400642330460222FEF733F920460122042150
:104C7400FCF7A8FC204647F2A22300220421ADF849
:104C84000430FCF79FFC6423294630460222FEF7D9
:104C94001FF9204601220421FCF794FC2248FFF767
:104CA40005FF204640F2892300220421ADF8043098
:104CB400FCF788FC2946642330460222FEF708F9F3
:104CC400204601220421FCF77DFC20464FF6927316
:104CD40000220421ADF80430FCF774FC2946642357
:104CE40030460222FEF7F4F8204601220421FCF7A4
:104CF40069FC20468D2300220421ADF80430FCF722
:104D040061FC2946642330460222FEF7E1F820467E
:104D140001220421FCF756FC02B070BD00000240E1
:104D2400000402403C02002000E0D8002DE9F04FCE
:104D3400002685B00746DD488DF80C6001248B46BB
:104D440091460421324605468DF80B40DDF838A023
:104D5400FCF738FC22460DF10B016423D448FEF71E
:104D6400B7F82246642303A9D148FEF7F9F922468D
:104D740004212846FCF726FC48F2811C9DF80C30DF
:104D84000193324604212846ADF80CC0FCF71AFC06
:104D9400642303A90222C648FEF79AF82246042196
:104DA4002846FCF70FFC324643F2B9430421284657
:104DB400ADF80C30FCF706FC642303A90222BC48BE
:104DC400FEF786F8224604212846FCF7FBFB324610
:104DD4004FF2C00304212846ADF80C30FCF7F2FB77
:104DE400642303A90222B248FEF772F82246042182
:104DF4002846FCF7E7FB32464FF29173042128461C
:104E0400ADF80C30FCF7DEFB642303A90222A848AA
:104E1400FEF75EF8224604212846FCF7D3FB32460F
:104E24004FF6927304212846ADF80C30FCF7CAFB08
:104E3400642303A902229E48FEF74AF8224604216D
:104E44002846FCF7BFFB32468E2304212846ADF8E2
:104E54000C30FCF7B7FB642303A902229448FEF745
:104E640037F8224604212846FCF7ACFB32468D2352
:104E740004212846ADF80C30FCF7A4FB642303A9F5
:104E840002228B48FEF724F8224604212846FCF728
:104E940099FB4FF080083246042128468DF80D70A6
:104EA4008DF80C80FCF78EFB642303A90222804852
:104EB4007F4FFEF70DF8224604212846FCF782FBBB
:104EC4003246042128468DF80C808DF80D90FCF7AD
:104ED40079FB03A9642302223846FDF7F9FF224631
:104EE40004212846FCF76EFB0BF1FF34D8460BF186
:104EF4006D0614F8013F8DF80D3000228023042143
:104F040028468DF80C30FCF75DFB6423022203A9CC
:104F14003846FDF7DDFF012204212846FCF752FB49
:104F2400A642E6D1B9F1000F00F03A81D9444FF618
:104F3400FF7348F2050118F8012B5C0082EA132084
:104F4400A3B2040648BF4B40500080EA13205B0024
:104F54009BB2000648BF4B40900080EA13205B00E0
:104F64009BB2070648BF4B40D00080EA13205B0089
:104F74009BB2060648BF4B40100180EA13205B0039
:104F84009BB2050648BF4B40500180EA13205B00EA
:104F94009BB2040648BF4B40900180EA13205B009B
:104FA4009BB2000648BF4B40D20182EA13225B0049
:104FB40012069BB248BF4B40C845BCD11D0ADCB2A7
:104FC40080260022042139488DF80D50374D8DF884
:104FD4000C60FCF7F7FA6423022203A93448FDF7B6
:104FE40077FF012204212846FCF7ECFA0022042171
:104FF40028468DF80C608DF80D40FCF7E3FA642325
:10500400022203A92A48FDF763FF0122042128464E
:10501400FCF7D8FA48F28133002204212846ADF87F
:105024000C30FCF7CFFA6423022203A92048FDF7D1
:105034004FFF00260122042128460124FCF7C2FA6E
:105044003246042128468DF80C608DF80B40FCF79D
:10505400B9FA224664230DF10B011548FDF738FF18
:105064006423224603A91248FEF77AF82246042153
:105074002846FCF7A7FA12273246042128468DF861
:105084000B608DF80C70FCF79DFA2246642303A98B
:105094000748074EFDF71CFF224664230DF10B0160
:1050A4000348FEF75DF82246042103E000040240B1
:1050B4003C0200202846FCF785FA9DF80B40FBF7DC
:1050C40085FE80461FE08DF80B408DF80C70FCF7D0
:1050D40079FA6423012203A93046FDF7F9FE64231B
:1050E40001220DF10B013046FEF73AF801220421AA
:1050F4002846FCF767FA9DF80B40FBF767FEA0EB28
:105104000800504548D804F008040421284604F057
:10511400FF02002CD7D048F2810300222248ADF8C8
:105124000C30FCF74FFA642303A902221F48FDF751
:10513400CFFE012204211C48FCF744FA8123019C80
:1051440019488DF80C30002204218DF80D40FCF72D
:1051540039FA642303A902221448FDF7B9FE012297
:1051640004211148FCF72EFA4FF692730022042111
:105174000D48ADF80C30FCF725FA03A9642302228C
:105184000A48FDF7A5FE012204210748FCF71AFA94
:10519400002005B0BDE8F08F032005B0BDE8F08F16
:1051A400FF2425460CE700BF000402403C02002017
:1051B4001049114BD1F8882042F4700210B4C1F8A0
:1051C40088201A680D4C002042F001021A60986091
:1051D4001A6822F0847222F480321A605C601A68C1
:1051E4004FF0006422F480221A60D8608C605DF86D
:1051F400044B704700ED00E00038024010300024FA
:10520400DFF834D0002103E00C4B5B5843500431E9
:105214000B480C4B42189A42F6D30B4A02E0002387
:1052240042F8043B094B9A42F9D3FFF7C1FF01F05E
:1052340069F8FEF7F3FE70470000022014EC000842
:10524400000000208000002080000020FC7300206B
:10525400FEE7000010B4B1F5807F2B4C8270C37060
:105264000180446043D00FD8102932D040291ED188
:105274004FF07252254B8181C1810261836000200D
:1052840040B25DF8044B7047B1F5806F14D0B1F5AE
:10529400805F0CD14FF0665303611D4A8260012385
:1052A4008381C381002040B25DF8044B7047FF2026
:1052B40040B25DF8044B70474FF06A530361154ADE
:1052C400826004238381C381002040B25DF8044BD3
:1052D40070474FF0765303610F4A82604FF4807336
:1052E4008381C381002040B25DF8044B70474FF0C6
:1052F4006E530361094A826010238381C3810020B5
:1053040040B25DF8044B7047FC6B00087A640008F7
:10531400FC63000802640008FA6500081A640008C7
:105324002DE9F04F2DED068B8A4689088DB04FEAA2
:10533400C10C00EB0C040D461F4691460A9204EB87
:105344000C020646009307EB470E05EB4503A2EB60
:10535400C50709900CF104000197039130443146CC
:1053640006EBC303371D009EAB46F5000295CDF84E
:1053740010B0DDF808B0CDF808A0DDF804A04FEABD
:1053840006184FEACE0E4E464D46D1ED014A10EDB9
:10539400014A17ED016AD2ED006A94ED017AD3ED6A
:1053A400017A93ED005AD2ED015A99ED003AD9ED04
:1053B400013A36EE262A74EE052A34EEA51A77EE63
:1053C400271A32EE220A71EE210A36EE666A34EEAC
:1053D400455A74EEE55A37EE677A07ED010AC1EDD6
:1053E400010A95ED004AD6ED006AD6ED017A72EE17
:1053F400624A71EE611A75EEC52A95ED011A36EE10
:10540400072A36EE477A35EE256A62EE040A21EE63
:10541400835A22EE012A22EE844A22EE811A67EE92
:10542400265A64EE832A66EE266A64EEA34A26EEC2
:10543400276A61EEA31A67EE277A30EE813A34EEDA
:10544400424A72EEA13A35EE645A35EE867A76EE29
:10545400E77A0831514540ED013A07F1080784ED38
:10546400015AC14482ED003A82ED014A5D4483ED64
:10547400007AC3ED017A764400F1080004F10804CF
:1054840002F1080203F108037FF47FAF009BBDF82B
:105494000C20DDF810B0DDF808A00B929B009BB245
:1054A400042A069340F2B980079206980A9F099E3F
:1054B4004FEA9B031946089300EB40034A1EDB00A6
:1054C400059203930A01030104920293C20000238C
:1054D40006EBC1090192B846BE460093049B97EDC2
:1054E400001AD7ED011A9EED002ADEED012A98ED8F
:1054F400003AD8ED013A009DF11809EB0302341D7E
:105504004B46304690ED014A54ED015A91ED007A34
:10551400D2ED007AD3ED014A92ED015A93ED006A7F
:10552400D1ED016A35EE870A34EE268A76EE278AB3
:1055340074EE666A36EE676A75EEC75A74EEC57A1B
:1055440074EE850A35EEE77A78EE604A35EEA75AAE
:1055540030EE684A76EEC65A76EE267A64EE02AAF1
:1055640024EEA2AA24EE224A65EE019A25EEA19A1F
:1055740027EE036A67EEA36A64EE824A25EE215A97
:1055840065EE815A27EE237A67EE837A78EE200A55
:1055940074EEC44A30EE280A3AEE8A8A39EE894A11
:1055A40075EEC55A76EE266A77EEC77A5D44AA454B
:1055B40004ED010AC0ED010A644483ED008AC3EDE1
:1055C400014A604481ED004AC1ED015A6344C2EDD1
:1055D400006AC2ED017A6144624493D8019A009B47
:1055E4001744029A9644039A9044059A01339342CD
:1055F400009306F1080609F108097FF66FAF069BD0
:10560400079ADDF820B092089B009BB2042A079207
:10561400069302D94FEACB0C47E7099B0B9A203338
:1056240053ED044A13ED066A13ED055A53ED015A7E
:1056340053ED076A13ED084A13ED027A53ED037A2A
:1056440034EE243A76EE073A34EE644A36EE477A7C
:1056540075EE654A35EE256A76EEA75A76EEE77A58
:1056640073EE232A35EE865A73EE633A77EEC76AF1
:1056740034EE243A35EEC66A74EE644A77EE277A3D
:10568400013A43ED082A43ED063A03ED043A43EDAB
:10569400024A03ED075A03ED056A43ED036A43ED3D
:1056A400017A03F12003BBD10DB0BDEC068BBDE83C
:1056B400F08F00BF2DE9F04F2DED088B8DB08A4699
:1056C40000938908009C03910D4600EB01111F46CD
:1056D400AB464FEAC50CA1EBC50805EB4503250114
:1056E400E400029401950646914607EB470E0990A3
:1056F400CDF810B00CF10400DDF808B0CDF808A026
:10570400DDF804A00A923044324606EBC303474650
:105714004FEACE0E04364D464C46D2ED014A10ED0A
:10572400014A16ED016AD1ED006A97ED017AD3EDD5
:10573400017AD3ED005A91ED015A99ED003AD9ED71
:10574400013A36EE262A74EE252A34EE851A77EECF
:10575400271A32EE228A71EE210A36EE666A74EE58
:10576400655A34EEC55A37EE677A06ED018AC2ED02
:10577400010A94ED004AD5ED006AD5ED017A72EE86
:10578400624A71EE611A75EE252A94ED011A36EE1D
:10579400472A36EE077A35EE656A62EE040A21EE90
:1057A400835A22EE012A22EE844A22EE811A67EEFF
:1057B400265A64EE832A66EE266A64EEA34A26EE2F
:1057C400276A61EEA31A67EE277A30EEC13A34EE07
:1057D400024A72EEE13A35EE245A35EEC67A76EE96
:1057E400A77A0832424540ED013A06F1080687EDF2
:1057F400015AD14481ED003A81ED014A5C4483EDC4
:10580400007AC3ED017A754400F1080007F1080736
:1058140001F1080103F108037FF47FAF009BBDF899
:105824000C20DDF810B0DDF808A00B929B009BB2B1
:10583400042A069340F2B980079206980A9F099EAB
:105844004FEA9B031946089300EB40034A1EDB0012
:10585400059203930A01030104920293C2000023F8
:1058640006EBC1090192B846BE460093049B97ED2E
:10587400001AD7ED011A9EED002ADEED012A98EDFB
:10588400003AD8ED013A009DF11809EB0302341DEA
:105894004B46304690ED014A14ED016A91ED007AD1
:1058A400D2ED007A93ED015AD1ED014AD2ED015ABD
:1058B400D3ED006A76EE070A36EEA78A36EE476A1B
:1058C40076EEE76A74EE248A74EE647A35EE657ACD
:1058D40035EE254A70EEC84A76EE475A38EEC45A79
:1058E40036EE077A37EEA66A77EEE67A24EE82BAC7
:1058F40065EE22AA64EEA24A25EE81AA66EE219AFA
:1059040027EE039A67EEA36A25EE025A65EEA15AC2
:1059140026EE016A27EE237A67EE837A70EE880A10
:1059240035EE245A38EE844A3BEE6A8A7AEE694AA6
:1059340036EE256A79EE666A77EE877A5D44AA4583
:1059440044ED010A80ED014A644483ED008A83ED4D
:10595400015A6044C1ED004A81ED016A6344C2ED1D
:10596400006AC2ED017A6144624493D8019A009BB3
:105974001744029A9644039A9044059A0133934239
:10598400009306F1080609F108097FF66FAF069B3C
:10599400079ADDF820B092089B009BB2042A079274
:1059A400069302D94FEACB0C47E7099B0B9A2033A5
:1059B40053ED044A13ED066A13ED055A53ED015AEB
:1059C40053ED076A13ED084A53ED027A13ED037A97
:1059D40034EE243A76EE273A34EE644A76EE677A69
:1059E40075EE654A35EE256A76EE875A36EEC77A45
:1059F40073EE232A74EE246A37EE275A73EE633A61
:105A040077EE677A34EE643A75EE864A35EEC66A06
:105A140062EE802A26EE007A63EE805A23EE004A74
:105A240066EE806A64EE804A25EE006A67EE807A4C
:105A3400013A43ED082A43ED065A03ED044A43EDC7
:105A4400026A43ED074A03ED057A03ED036A43ED69
:105A5400017A03F12003ABD10DB0BDEC088BBDE896
:105A6400F08F00BF70B583780446012B0D460846BD
:105A740062682188A38905D0FFF752FCE378012BE3
:105A840007D070BD94ED040AFFF714FEE378012BF0
:105A9400F7D128462188E289A368BDE8704000F068
:105AA4005FBB00BF70B5049C826004F18044013C7C
:105AB40005460C4401801E46A2001846002100F051
:105AC40050FC6E6070BD00BF2DE9F04F2DED108BC2
